{
  "_format": "hh-sol-artifact-1",
  "contractName": "ResultHandler",
  "sourceName": "contracts/ResultHandler.sol",
  "abi": [
    {
      "anonymous": false,
      "inputs": [
        {
          "indexed": false,
          "internalType": "bytes32",
          "name": "schainHash",
          "type": "bytes32"
        },
        {
          "indexed": false,
          "internalType": "address",
          "name": "sender",
          "type": "address"
        },
        {
          "indexed": false,
          "internalType": "bytes",
          "name": "data",
          "type": "bytes"
        }
      ],
      "name": "DataReceived",
      "type": "event"
    },
    {
      "inputs": [
        {
          "internalType": "uint256",
          "name": "",
          "type": "uint256"
        }
      ],
      "name": "activeCollectionIds",
      "outputs": [
        {
          "internalType": "uint16",
          "name": "",
          "type": "uint16"
        }
      ],
      "stateMutability": "view",
      "type": "function"
    },
    {
      "inputs": [
        {
          "internalType": "uint16",
          "name": "",
          "type": "uint16"
        }
      ],
      "name": "collectionResults",
      "outputs": [
        {
          "internalType": "uint256",
          "name": "result",
          "type": "uint256"
        },
        {
          "internalType": "int8",
          "name": "power",
          "type": "int8"
        }
      ],
      "stateMutability": "view",
      "type": "function"
    },
    {
      "inputs": [],
      "name": "getAllResult",
      "outputs": [
        {
          "internalType": "uint16[]",
          "name": "",
          "type": "uint16[]"
        },
        {
          "internalType": "uint256[]",
          "name": "",
          "type": "uint256[]"
        },
        {
          "internalType": "int8[]",
          "name": "",
          "type": "int8[]"
        },
        {
          "internalType": "uint256",
          "name": "",
          "type": "uint256"
        }
      ],
      "stateMutability": "view",
      "type": "function"
    },
    {
      "inputs": [
        {
          "internalType": "uint16",
          "name": "_id",
          "type": "uint16"
        }
      ],
      "name": "getResult",
      "outputs": [
        {
          "internalType": "uint256",
          "name": "",
          "type": "uint256"
        },
        {
          "internalType": "int8",
          "name": "",
          "type": "int8"
        }
      ],
      "stateMutability": "view",
      "type": "function"
    },
    {
      "inputs": [],
      "name": "lastUpdatedTimestamp",
      "outputs": [
        {
          "internalType": "uint256",
          "name": "",
          "type": "uint256"
        }
      ],
      "stateMutability": "view",
      "type": "function"
    },
    {
      "inputs": [
        {
          "internalType": "bytes32",
          "name": "schainHash",
          "type": "bytes32"
        },
        {
          "internalType": "address",
          "name": "sender",
          "type": "address"
        },
        {
          "internalType": "bytes",
          "name": "data",
          "type": "bytes"
        }
      ],
      "name": "postMessage",
      "outputs": [
        {
          "internalType": "address",
          "name": "",
          "type": "address"
        }
      ],
      "stateMutability": "nonpayable",
      "type": "function"
    }
  ],
  "bytecode": "0x608060405234801561001057600080fd5b50611192806100206000396000f3fe608060405234801561001057600080fd5b50600436106100625760003560e01c80630865b4c2146100675780636533b07514610098578063884cee5a146100c857806388d37d06146100f8578063bf0bde9614610119578063fbaf894c1461014a575b600080fd5b610081600480360381019061007c9190610709565b610168565b60405161008f92919061076b565b60405180910390f35b6100b260048036038101906100ad91906107c0565b6101bf565b6040516100bf91906107fc565b60405180910390f35b6100e260048036038101906100dd9190610910565b6101f7565b6040516100ef9190610993565b60405180910390f35b610100610365565b6040516101109493929190610be8565b60405180910390f35b610133600480360381019061012e9190610709565b6105bd565b60405161014192919061076b565b60405180910390f35b6101526105ee565b60405161015f9190610c42565b60405180910390f35b600080600260008461ffff1661ffff16815260200190815260200160002060000154600260008561ffff1661ffff16815260200190815260200160002060010160009054906101000a900460000b91509150915091565b600081815481106101cf57600080fd5b9060005260206000209060109182820401919006600202915054906101000a900461ffff1681565b6000806000806000868681019061020e9190610f5e565b9350935093509350836000908051906020019061022c9291906105f4565b508060018190555060005b84518110156103185783818151811061025357610252611019565b5b60200260200101516002600087848151811061027257610271611019565b5b602002602001015161ffff1661ffff168152602001908152602001600020600001819055508281815181106102aa576102a9611019565b5b6020026020010151600260008784815181106102c9576102c8611019565b5b602002602001015161ffff1661ffff16815260200190815260200160002060010160006101000a81548160ff021916908360000b60ff160217905550808061031090611077565b915050610237565b507f4b2ab99cff747f6111d61503aa5c9e5fab10443571412b360ec9d44cec48f2d98989898960405161034e949392919061111c565b60405180910390a187945050505050949350505050565b6060806060600080600080549050905060008167ffffffffffffffff81111561039157610390610c6e565b5b6040519080825280602002602001820160405280156103bf5781602001602082028036833780820191505090505b50905060008267ffffffffffffffff8111156103de576103dd610c6e565b5b60405190808252806020026020018201604052801561040c5781602001602082028036833780820191505090505b50905060005b8381101561052a576002600080838154811061043157610430611019565b5b90600052602060002090601091828204019190066002029054906101000a900461ffff1661ffff1661ffff1681526020019081526020016000206000015483828151811061048257610481611019565b5b602002602001018181525050600260008083815481106104a5576104a4611019565b5b90600052602060002090601091828204019190066002029054906101000a900461ffff1661ffff1661ffff16815260200190815260200160002060010160009054906101000a900460000b82828151811061050357610502611019565b5b602002602001019060000b908160000b81525050808061052290611077565b915050610412565b5060008282600154838054806020026020016040519081016040528092919081815260200182805480156105a557602002820191906000526020600020906000905b82829054906101000a900461ffff1661ffff168152602001906002019060208260010104928301926001038202915080841161056c5790505b50505050509350965096509650965050505090919293565b60026020528060005260406000206000915090508060000154908060010160009054906101000a900460000b905082565b60015481565b82805482825590600052602060002090600f0160109004810192821561068d5791602002820160005b8382111561065d57835183826101000a81548161ffff021916908361ffff160217905550926020019260020160208160010104928301926001030261061d565b801561068b5782816101000a81549061ffff021916905560020160208160010104928301926001030261065d565b505b50905061069a919061069e565b5090565b5b808211156106b757600081600090555060010161069f565b5090565b6000604051905090565b600080fd5b600080fd5b600061ffff82169050919050565b6106e6816106cf565b81146106f157600080fd5b50565b600081359050610703816106dd565b92915050565b60006020828403121561071f5761071e6106c5565b5b600061072d848285016106f4565b91505092915050565b6000819050919050565b61074981610736565b82525050565b60008160000b9050919050565b6107658161074f565b82525050565b60006040820190506107806000830185610740565b61078d602083018461075c565b9392505050565b61079d81610736565b81146107a857600080fd5b50565b6000813590506107ba81610794565b92915050565b6000602082840312156107d6576107d56106c5565b5b60006107e4848285016107ab565b91505092915050565b6107f6816106cf565b82525050565b600060208201905061081160008301846107ed565b92915050565b6000819050919050565b61082a81610817565b811461083557600080fd5b50565b60008135905061084781610821565b92915050565b600073ffffffffffffffffffffffffffffffffffffffff82169050919050565b60006108788261084d565b9050919050565b6108888161086d565b811461089357600080fd5b50565b6000813590506108a58161087f565b92915050565b600080fd5b600080fd5b600080fd5b60008083601f8401126108d0576108cf6108ab565b5b8235905067ffffffffffffffff8111156108ed576108ec6108b0565b5b602083019150836001820283011115610909576109086108b5565b5b9250929050565b6000806000806060858703121561092a576109296106c5565b5b600061093887828801610838565b945050602061094987828801610896565b935050604085013567ffffffffffffffff81111561096a576109696106ca565b5b610976878288016108ba565b925092505092959194509250565b61098d8161086d565b82525050565b60006020820190506109a86000830184610984565b92915050565b600081519050919050565b600082825260208201905092915050565b6000819050602082019050919050565b6109e3816106cf565b82525050565b60006109f583836109da565b60208301905092915050565b6000602082019050919050565b6000610a19826109ae565b610a2381856109b9565b9350610a2e836109ca565b8060005b83811015610a5f578151610a4688826109e9565b9750610a5183610a01565b925050600181019050610a32565b5085935050505092915050565b600081519050919050565b600082825260208201905092915050565b6000819050602082019050919050565b610aa181610736565b82525050565b6000610ab38383610a98565b60208301905092915050565b6000602082019050919050565b6000610ad782610a6c565b610ae18185610a77565b9350610aec83610a88565b8060005b83811015610b1d578151610b048882610aa7565b9750610b0f83610abf565b925050600181019050610af0565b5085935050505092915050565b600081519050919050565b600082825260208201905092915050565b6000819050602082019050919050565b610b5f8161074f565b82525050565b6000610b718383610b56565b60208301905092915050565b6000602082019050919050565b6000610b9582610b2a565b610b9f8185610b35565b9350610baa83610b46565b8060005b83811015610bdb578151610bc28882610b65565b9750610bcd83610b7d565b925050600181019050610bae565b5085935050505092915050565b60006080820190508181036000830152610c028187610a0e565b90508181036020830152610c168186610acc565b90508181036040830152610c2a8185610b8a565b9050610c396060830184610740565b95945050505050565b6000602082019050610c576000830184610740565b92915050565b6000601f19601f8301169050919050565b7f4e487b7100000000000000000000000000000000000000000000000000000000600052604160045260246000fd5b610ca682610c5d565b810181811067ffffffffffffffff82111715610cc557610cc4610c6e565b5b80604052505050565b6000610cd86106bb565b9050610ce48282610c9d565b919050565b600067ffffffffffffffff821115610d0457610d03610c6e565b5b602082029050602081019050919050565b6000610d28610d2384610ce9565b610cce565b90508083825260208201905060208402830185811115610d4b57610d4a6108b5565b5b835b81811015610d745780610d6088826106f4565b845260208401935050602081019050610d4d565b5050509392505050565b600082601f830112610d9357610d926108ab565b5b8135610da3848260208601610d15565b91505092915050565b600067ffffffffffffffff821115610dc757610dc6610c6e565b5b602082029050602081019050919050565b6000610deb610de684610dac565b610cce565b90508083825260208201905060208402830185811115610e0e57610e0d6108b5565b5b835b81811015610e375780610e2388826107ab565b845260208401935050602081019050610e10565b5050509392505050565b600082601f830112610e5657610e556108ab565b5b8135610e66848260208601610dd8565b91505092915050565b600067ffffffffffffffff821115610e8a57610e89610c6e565b5b602082029050602081019050919050565b610ea48161074f565b8114610eaf57600080fd5b50565b600081359050610ec181610e9b565b92915050565b6000610eda610ed584610e6f565b610cce565b90508083825260208201905060208402830185811115610efd57610efc6108b5565b5b835b81811015610f265780610f128882610eb2565b845260208401935050602081019050610eff565b5050509392505050565b600082601f830112610f4557610f446108ab565b5b8135610f55848260208601610ec7565b91505092915050565b60008060008060808587031215610f7857610f776106c5565b5b600085013567ffffffffffffffff811115610f9657610f956106ca565b5b610fa287828801610d7e565b945050602085013567ffffffffffffffff811115610fc357610fc26106ca565b5b610fcf87828801610e41565b935050604085013567ffffffffffffffff811115610ff057610fef6106ca565b5b610ffc87828801610f30565b925050606061100d878288016107ab565b91505092959194509250565b7f4e487b7100000000000000000000000000000000000000000000000000000000600052603260045260246000fd5b7f4e487b7100000000000000000000000000000000000000000000000000000000600052601160045260246000fd5b600061108282610736565b91507fffffffffffffffffffffffffffffffffffffffffffffffffffffffffffffffff8214156110b5576110b4611048565b5b600182019050919050565b6110c981610817565b82525050565b600082825260208201905092915050565b82818337600083830152505050565b60006110fb83856110cf565b93506111088385846110e0565b61111183610c5d565b840190509392505050565b600060608201905061113160008301876110c0565b61113e6020830186610984565b81810360408301526111518184866110ef565b90509594505050505056fea26469706673582212208a1f02e1ca3868e26bfa26ac8eb18b6f6bf8f476810507f7452b2f05c971463d64736f6c63430008090033",
  "linkReferences": {},
  "deployedLinkReferences": {}
}